{
  "_format": "hh-sol-artifact-1",
  "contractName": "DynasticIdentity",
  "sourceName": "contracts/DynasticIdentity.sol",
  "abi": [
    {
      "inputs": [],
      "stateMutability": "nonpayable",
      "type": "constructor"
    },
    {
      "inputs": [],
      "name": "AccessControlBadConfirmation",
      "type": "error"
    },
    {
      "inputs": [
        {
          "internalType": "address",
          "name": "account",
          "type": "address"
        },
        {
          "internalType": "bytes32",
          "name": "neededRole",
          "type": "bytes32"
        }
      ],
      "name": "AccessControlUnauthorizedAccount",
      "type": "error"
    },
    {
      "inputs": [
        {
          "internalType": "address",
          "name": "sender",
          "type": "address"
        },
        {
          "internalType": "uint256",
          "name": "tokenId",
          "type": "uint256"
        },
        {
          "internalType": "address",
          "name": "owner",
          "type": "address"
        }
      ],
      "name": "ERC721IncorrectOwner",
      "type": "error"
    },
    {
      "inputs": [
        {
          "internalType": "address",
          "name": "operator",
          "type": "address"
        },
        {
          "internalType": "uint256",
          "name": "tokenId",
          "type": "uint256"
        }
      ],
      "name": "ERC721InsufficientApproval",
      "type": "error"
    },
    {
      "inputs": [
        {
          "internalType": "address",
          "name": "approver",
          "type": "address"
        }
      ],
      "name": "ERC721InvalidApprover",
      "type": "error"
    },
    {
      "inputs": [
        {
          "internalType": "address",
          "name": "operator",
          "type": "address"
        }
      ],
      "name": "ERC721InvalidOperator",
      "type": "error"
    },
    {
      "inputs": [
        {
          "internalType": "address",
          "name": "owner",
          "type": "address"
        }
      ],
      "name": "ERC721InvalidOwner",
      "type": "error"
    },
    {
      "inputs": [
        {
          "internalType": "address",
          "name": "receiver",
          "type": "address"
        }
      ],
      "name": "ERC721InvalidReceiver",
      "type": "error"
    },
    {
      "inputs": [
        {
          "internalType": "address",
          "name": "sender",
          "type": "address"
        }
      ],
      "name": "ERC721InvalidSender",
      "type": "error"
    },
    {
      "inputs": [
        {
          "internalType": "uint256",
          "name": "tokenId",
          "type": "uint256"
        }
      ],
      "name": "ERC721NonexistentToken",
      "type": "error"
    },
    {
      "inputs": [],
      "name": "InvalidInitialization",
      "type": "error"
    },
    {
      "inputs": [],
      "name": "NotInitializing",
      "type": "error"
    },
    {
      "anonymous": false,
      "inputs": [
        {
          "indexed": true,
          "internalType": "address",
          "name": "owner",
          "type": "address"
        },
        {
          "indexed": true,
          "internalType": "address",
          "name": "approved",
          "type": "address"
        },
        {
          "indexed": true,
          "internalType": "uint256",
          "name": "tokenId",
          "type": "uint256"
        }
      ],
      "name": "Approval",
      "type": "event"
    },
    {
      "anonymous": false,
      "inputs": [
        {
          "indexed": true,
          "internalType": "address",
          "name": "owner",
          "type": "address"
        },
        {
          "indexed": true,
          "internalType": "address",
          "name": "operator",
          "type": "address"
        },
        {
          "indexed": false,
          "internalType": "bool",
          "name": "approved",
          "type": "bool"
        }
      ],
      "name": "ApprovalForAll",
      "type": "event"
    },
    {
      "anonymous": false,
      "inputs": [
        {
          "indexed": false,
          "internalType": "uint64",
          "name": "version",
          "type": "uint64"
        }
      ],
      "name": "Initialized",
      "type": "event"
    },
    {
      "anonymous": false,
      "inputs": [
        {
          "indexed": true,
          "internalType": "bytes32",
          "name": "role",
          "type": "bytes32"
        },
        {
          "indexed": true,
          "internalType": "bytes32",
          "name": "previousAdminRole",
          "type": "bytes32"
        },
        {
          "indexed": true,
          "internalType": "bytes32",
          "name": "newAdminRole",
          "type": "bytes32"
        }
      ],
      "name": "RoleAdminChanged",
      "type": "event"
    },
    {
      "anonymous": false,
      "inputs": [
        {
          "indexed": true,
          "internalType": "bytes32",
          "name": "role",
          "type": "bytes32"
        },
        {
          "indexed": true,
          "internalType": "address",
          "name": "account",
          "type": "address"
        },
        {
          "indexed": true,
          "internalType": "address",
          "name": "sender",
          "type": "address"
        }
      ],
      "name": "RoleGranted",
      "type": "event"
    },
    {
      "anonymous": false,
      "inputs": [
        {
          "indexed": true,
          "internalType": "bytes32",
          "name": "role",
          "type": "bytes32"
        },
        {
          "indexed": true,
          "internalType": "address",
          "name": "account",
          "type": "address"
        },
        {
          "indexed": true,
          "internalType": "address",
          "name": "sender",
          "type": "address"
        }
      ],
      "name": "RoleRevoked",
      "type": "event"
    },
    {
      "anonymous": false,
      "inputs": [
        {
          "indexed": true,
          "internalType": "address",
          "name": "sovereign",
          "type": "address"
        },
        {
          "indexed": false,
          "internalType": "uint256",
          "name": "tokenId",
          "type": "uint256"
        },
        {
          "indexed": false,
          "internalType": "string",
          "name": "title",
          "type": "string"
        }
      ],
      "name": "TitleConferred",
      "type": "event"
    },
    {
      "anonymous": false,
      "inputs": [
        {
          "indexed": true,
          "internalType": "address",
          "name": "from",
          "type": "address"
        },
        {
          "indexed": true,
          "internalType": "address",
          "name": "to",
          "type": "address"
        },
        {
          "indexed": true,
          "internalType": "uint256",
          "name": "tokenId",
          "type": "uint256"
        }
      ],
      "name": "Transfer",
      "type": "event"
    },
    {
      "inputs": [],
      "name": "DEFAULT_ADMIN_ROLE",
      "outputs": [
        {
          "internalType": "bytes32",
          "name": "",
          "type": "bytes32"
        }
      ],
      "stateMutability": "view",
      "type": "function"
    },
    {
      "inputs": [],
      "name": "ROYAL_HERALD_ROLE",
      "outputs": [
        {
          "internalType": "bytes32",
          "name": "",
          "type": "bytes32"
        }
      ],
      "stateMutability": "view",
      "type": "function"
    },
    {
      "inputs": [
        {
          "internalType": "address",
          "name": "to",
          "type": "address"
        },
        {
          "internalType": "uint256",
          "name": "tokenId",
          "type": "uint256"
        }
      ],
      "name": "approve",
      "outputs": [],
      "stateMutability": "nonpayable",
      "type": "function"
    },
    {
      "inputs": [
        {
          "internalType": "address",
          "name": "owner",
          "type": "address"
        }
      ],
      "name": "balanceOf",
      "outputs": [
        {
          "internalType": "uint256",
          "name": "",
          "type": "uint256"
        }
      ],
      "stateMutability": "view",
      "type": "function"
    },
    {
      "inputs": [
        {
          "internalType": "address",
          "name": "to",
          "type": "address"
        },
        {
          "internalType": "uint256",
          "name": "tokenId",
          "type": "uint256"
        },
        {
          "internalType": "string",
          "name": "title",
          "type": "string"
        }
      ],
      "name": "conferTitle",
      "outputs": [],
      "stateMutability": "nonpayable",
      "type": "function"
    },
    {
      "inputs": [
        {
          "internalType": "uint256",
          "name": "tokenId",
          "type": "uint256"
        }
      ],
      "name": "getApproved",
      "outputs": [
        {
          "internalType": "address",
          "name": "",
          "type": "address"
        }
      ],
      "stateMutability": "view",
      "type": "function"
    },
    {
      "inputs": [
        {
          "internalType": "bytes32",
          "name": "role",
          "type": "bytes32"
        }
      ],
      "name": "getRoleAdmin",
      "outputs": [
        {
          "internalType": "bytes32",
          "name": "",
          "type": "bytes32"
        }
      ],
      "stateMutability": "view",
      "type": "function"
    },
    {
      "inputs": [
        {
          "internalType": "uint256",
          "name": "tokenId",
          "type": "uint256"
        }
      ],
      "name": "getTitle",
      "outputs": [
        {
          "internalType": "string",
          "name": "",
          "type": "string"
        }
      ],
      "stateMutability": "view",
      "type": "function"
    },
    {
      "inputs": [
        {
          "internalType": "bytes32",
          "name": "role",
          "type": "bytes32"
        },
        {
          "internalType": "address",
          "name": "account",
          "type": "address"
        }
      ],
      "name": "grantRole",
      "outputs": [],
      "stateMutability": "nonpayable",
      "type": "function"
    },
    {
      "inputs": [
        {
          "internalType": "bytes32",
          "name": "role",
          "type": "bytes32"
        },
        {
          "internalType": "address",
          "name": "account",
          "type": "address"
        }
      ],
      "name": "hasRole",
      "outputs": [
        {
          "internalType": "bool",
          "name": "",
          "type": "bool"
        }
      ],
      "stateMutability": "view",
      "type": "function"
    },
    {
      "inputs": [
        {
          "internalType": "address",
          "name": "initialOwner",
          "type": "address"
        }
      ],
      "name": "initialize",
      "outputs": [],
      "stateMutability": "nonpayable",
      "type": "function"
    },
    {
      "inputs": [
        {
          "internalType": "address",
          "name": "owner",
          "type": "address"
        },
        {
          "internalType": "address",
          "name": "operator",
          "type": "address"
        }
      ],
      "name": "isApprovedForAll",
      "outputs": [
        {
          "internalType": "bool",
          "name": "",
          "type": "bool"
        }
      ],
      "stateMutability": "view",
      "type": "function"
    },
    {
      "inputs": [],
      "name": "name",
      "outputs": [
        {
          "internalType": "string",
          "name": "",
          "type": "string"
        }
      ],
      "stateMutability": "view",
      "type": "function"
    },
    {
      "inputs": [
        {
          "internalType": "uint256",
          "name": "tokenId",
          "type": "uint256"
        }
      ],
      "name": "ownerOf",
      "outputs": [
        {
          "internalType": "address",
          "name": "",
          "type": "address"
        }
      ],
      "stateMutability": "view",
      "type": "function"
    },
    {
      "inputs": [
        {
          "internalType": "bytes32",
          "name": "role",
          "type": "bytes32"
        },
        {
          "internalType": "address",
          "name": "callerConfirmation",
          "type": "address"
        }
      ],
      "name": "renounceRole",
      "outputs": [],
      "stateMutability": "nonpayable",
      "type": "function"
    },
    {
      "inputs": [
        {
          "internalType": "bytes32",
          "name": "role",
          "type": "bytes32"
        },
        {
          "internalType": "address",
          "name": "account",
          "type": "address"
        }
      ],
      "name": "revokeRole",
      "outputs": [],
      "stateMutability": "nonpayable",
      "type": "function"
    },
    {
      "inputs": [
        {
          "internalType": "address",
          "name": "from",
          "type": "address"
        },
        {
          "internalType": "address",
          "name": "to",
          "type": "address"
        },
        {
          "internalType": "uint256",
          "name": "tokenId",
          "type": "uint256"
        }
      ],
      "name": "safeTransferFrom",
      "outputs": [],
      "stateMutability": "nonpayable",
      "type": "function"
    },
    {
      "inputs": [
        {
          "internalType": "address",
          "name": "from",
          "type": "address"
        },
        {
          "internalType": "address",
          "name": "to",
          "type": "address"
        },
        {
          "internalType": "uint256",
          "name": "tokenId",
          "type": "uint256"
        },
        {
          "internalType": "bytes",
          "name": "data",
          "type": "bytes"
        }
      ],
      "name": "safeTransferFrom",
      "outputs": [],
      "stateMutability": "nonpayable",
      "type": "function"
    },
    {
      "inputs": [
        {
          "internalType": "address",
          "name": "operator",
          "type": "address"
        },
        {
          "internalType": "bool",
          "name": "approved",
          "type": "bool"
        }
      ],
      "name": "setApprovalForAll",
      "outputs": [],
      "stateMutability": "nonpayable",
      "type": "function"
    },
    {
      "inputs": [
        {
          "internalType": "bytes4",
          "name": "interfaceId",
          "type": "bytes4"
        }
      ],
      "name": "supportsInterface",
      "outputs": [
        {
          "internalType": "bool",
          "name": "",
          "type": "bool"
        }
      ],
      "stateMutability": "view",
      "type": "function"
    },
    {
      "inputs": [],
      "name": "symbol",
      "outputs": [
        {
          "internalType": "string",
          "name": "",
          "type": "string"
        }
      ],
      "stateMutability": "view",
      "type": "function"
    },
    {
      "inputs": [
        {
          "internalType": "uint256",
          "name": "tokenId",
          "type": "uint256"
        }
      ],
      "name": "tokenURI",
      "outputs": [
        {
          "internalType": "string",
          "name": "",
          "type": "string"
        }
      ],
      "stateMutability": "view",
      "type": "function"
    },
    {
      "inputs": [
        {
          "internalType": "address",
          "name": "from",
          "type": "address"
        },
        {
          "internalType": "address",
          "name": "to",
          "type": "address"
        },
        {
          "internalType": "uint256",
          "name": "tokenId",
          "type": "uint256"
        }
      ],
      "name": "transferFrom",
      "outputs": [],
      "stateMutability": "nonpayable",
      "type": "function"
    }
  ],
  "bytecode": "0x60806040523480156200001157600080fd5b50620000226200002860201b60201c565b620001bb565b60006200003a6200013260201b60201c565b90508060000160089054906101000a900460ff161562000086576040517ff92ee8a900000000000000000000000000000000000000000000000000000000815260040160405180910390fd5b67ffffffffffffffff80168160000160009054906101000a900467ffffffffffffffff1667ffffffffffffffff16146200012f5767ffffffffffffffff8160000160006101000a81548167ffffffffffffffff021916908367ffffffffffffffff1602179055507fc7f505b2f371ae2175ee4913f4499e1f2633a7b5936321eed1cdaeb6115181d267ffffffffffffffff6040516200012691906200019e565b60405180910390a15b50565b600080620001456200014e60201b60201c565b90508091505090565b60007ff0c57e16840df040f15088dc2f81fe391c3923bec73e23a9662efc9c229c6a0060001b905090565b600067ffffffffffffffff82169050919050565b620001988162000179565b82525050565b6000602082019050620001b560008301846200018d565b92915050565b612fee80620001cb6000396000f3fe608060405234801561001057600080fd5b506004361061014d5760003560e01c80636c035384116100c3578063a22cb4651161007c578063a22cb465146103c2578063b88d4fde146103de578063c4d66de8146103fa578063c87b56dd14610416578063d547741f14610446578063e985e9c5146104625761014d565b80636c035384146102d857806370a08231146102f657806391d1485414610326578063929a79b11461035657806395d89b4114610386578063a217fddf146103a45761014d565b806323b872dd1161011557806323b872dd14610208578063248a9ca3146102245780632f2ff15d1461025457806336568abe1461027057806342842e0e1461028c5780636352211e146102a85761014d565b806301ffc9a71461015257806306fdde0314610182578063081812fc146101a0578063095ea7b3146101d057806313a0f210146101ec575b600080fd5b61016c60048036038101906101679190612288565b610492565b60405161017991906122d0565b60405180910390f35b61018a6104a4565b604051610197919061237b565b60405180910390f35b6101ba60048036038101906101b591906123d3565b610545565b6040516101c79190612441565b60405180910390f35b6101ea60048036038101906101e59190612488565b610561565b005b610206600480360381019061020191906125fd565b610577565b005b610222600480360381019061021d919061266c565b610621565b005b61023e600480360381019061023991906126f5565b610723565b60405161024b9190612731565b60405180910390f35b61026e6004803603810190610269919061274c565b610751565b005b61028a6004803603810190610285919061274c565b610773565b005b6102a660048036038101906102a1919061266c565b6107ee565b005b6102c260048036038101906102bd91906123d3565b61080e565b6040516102cf9190612441565b60405180910390f35b6102e0610820565b6040516102ed9190612731565b60405180910390f35b610310600480360381019061030b919061278c565b610844565b60405161031d91906127c8565b60405180910390f35b610340600480360381019061033b919061274c565b61090d565b60405161034d91906122d0565b60405180910390f35b610370600480360381019061036b91906123d3565b610986565b60405161037d919061237b565b60405180910390f35b61038e610a2a565b60405161039b919061237b565b60405180910390f35b6103ac610acb565b6040516103b99190612731565b60405180910390f35b6103dc60048036038101906103d7919061280f565b610ad2565b005b6103f860048036038101906103f391906128f0565b610ae8565b005b610414600480360381019061040f919061278c565b610b0d565b005b610430600480360381019061042b91906123d3565b610d48565b60405161043d919061237b565b60405180910390f35b610460600480360381019061045b919061274c565b610db1565b005b61047c60048036038101906104779190612973565b610dd3565b60405161048991906122d0565b60405180910390f35b600061049d82610e75565b9050919050565b606060006104b0610eef565b90508060000180546104c1906129e2565b80601f01602080910402602001604051908101604052809291908181526020018280546104ed906129e2565b801561053a5780601f1061050f5761010080835404028352916020019161053a565b820191906000526020600020905b81548152906001019060200180831161051d57829003601f168201915b505050505091505090565b600061055082610f17565b5061055a82610f9f565b9050919050565b610573828261056e610fea565b610ff2565b5050565b7fbb4910169dd00f736acfbaa71cfbb2d7d89dcaeecb65b925d2e63e626b43fa716105a181611004565b6105ab8484611018565b8160008085815260200190815260200160002090816105ca9190612bbf565b508373ffffffffffffffffffffffffffffffffffffffff167fc789fb9797723d817b6a38fcc9c1495d88f523b38da9e960f305f1c2eda442048484604051610613929190612c91565b60405180910390a250505050565b600073ffffffffffffffffffffffffffffffffffffffff168273ffffffffffffffffffffffffffffffffffffffff16036106935760006040517f64a0ae9200000000000000000000000000000000000000000000000000000000815260040161068a9190612441565b60405180910390fd5b60006106a783836106a2610fea565b611036565b90508373ffffffffffffffffffffffffffffffffffffffff168173ffffffffffffffffffffffffffffffffffffffff161461071d578382826040517f64283d7b00000000000000000000000000000000000000000000000000000000815260040161071493929190612cc1565b60405180910390fd5b50505050565b60008061072e611103565b905080600001600084815260200190815260200160002060010154915050919050565b61075a82610723565b61076381611004565b61076d838361112b565b50505050565b61077b610fea565b73ffffffffffffffffffffffffffffffffffffffff168173ffffffffffffffffffffffffffffffffffffffff16146107df576040517f6697b23200000000000000000000000000000000000000000000000000000000815260040160405180910390fd5b6107e9828261122c565b505050565b61080983838360405180602001604052806000815250610ae8565b505050565b600061081982610f17565b9050919050565b7fbb4910169dd00f736acfbaa71cfbb2d7d89dcaeecb65b925d2e63e626b43fa7181565b60008061084f610eef565b9050600073ffffffffffffffffffffffffffffffffffffffff168373ffffffffffffffffffffffffffffffffffffffff16036108c35760006040517f89c62b640000000000000000000000000000000000000000000000000000000081526004016108ba9190612441565b60405180910390fd5b8060030160008473ffffffffffffffffffffffffffffffffffffffff1673ffffffffffffffffffffffffffffffffffffffff16815260200190815260200160002054915050919050565b600080610918611103565b905080600001600085815260200190815260200160002060000160008473ffffffffffffffffffffffffffffffffffffffff1673ffffffffffffffffffffffffffffffffffffffff16815260200190815260200160002060009054906101000a900460ff1691505092915050565b606060008083815260200190815260200160002080546109a5906129e2565b80601f01602080910402602001604051908101604052809291908181526020018280546109d1906129e2565b8015610a1e5780601f106109f357610100808354040283529160200191610a1e565b820191906000526020600020905b815481529060010190602001808311610a0157829003601f168201915b50505050509050919050565b60606000610a36610eef565b9050806001018054610a47906129e2565b80601f0160208091040260200160405190810160405280929190818152602001828054610a73906129e2565b8015610ac05780601f10610a9557610100808354040283529160200191610ac0565b820191906000526020600020905b815481529060010190602001808311610aa357829003601f168201915b505050505091505090565b6000801b81565b610ae4610add610fea565b838361132e565b5050565b610af3848484610621565b610b07610afe610fea565b858585856114ac565b50505050565b6000610b1761165d565b905060008160000160089054906101000a900460ff1615905060008260000160009054906101000a900467ffffffffffffffff1690506000808267ffffffffffffffff16148015610b655750825b9050600060018367ffffffffffffffff16148015610b9a575060003073ffffffffffffffffffffffffffffffffffffffff163b145b905081158015610ba8575080155b15610bdf576040517ff92ee8a900000000000000000000000000000000000000000000000000000000815260040160405180910390fd5b60018560000160006101000a81548167ffffffffffffffff021916908367ffffffffffffffff1602179055508315610c2f5760018560000160086101000a81548160ff0219169083151502179055505b610ca36040518060400160405280601781526020017f436f6465782044796e6173746963204964656e746974790000000000000000008152506040518060400160405280600381526020017f4344490000000000000000000000000000000000000000000000000000000000815250611671565b610cab611687565b610cb86000801b8761112b565b50610ce37fbb4910169dd00f736acfbaa71cfbb2d7d89dcaeecb65b925d2e63e626b43fa718761112b565b508315610d405760008560000160086101000a81548160ff0219169083151502179055507fc7f505b2f371ae2175ee4913f4499e1f2633a7b5936321eed1cdaeb6115181d26001604051610d379190612d47565b60405180910390a15b505050505050565b6060610d5382610f17565b506000610d5e611691565b90506000815111610d7e5760405180602001604052806000815250610da9565b80610d88846116a8565b604051602001610d99929190612d9e565b6040516020818303038152906040525b915050919050565b610dba82610723565b610dc381611004565b610dcd838361122c565b50505050565b600080610dde610eef565b90508060050160008573ffffffffffffffffffffffffffffffffffffffff1673ffffffffffffffffffffffffffffffffffffffff16815260200190815260200160002060008473ffffffffffffffffffffffffffffffffffffffff1673ffffffffffffffffffffffffffffffffffffffff16815260200190815260200160002060009054906101000a900460ff1691505092915050565b60007f7965db0b000000000000000000000000000000000000000000000000000000007bffffffffffffffffffffffffffffffffffffffffffffffffffffffff1916827bffffffffffffffffffffffffffffffffffffffffffffffffffffffff19161480610ee85750610ee782611776565b5b9050919050565b60007f80bb2b638cc20bc4d0a60d66940f3ab4a00c1d7b313497ca82fb0b4ab0079300905090565b600080610f2383611858565b9050600073ffffffffffffffffffffffffffffffffffffffff168173ffffffffffffffffffffffffffffffffffffffff1603610f9657826040517f7e273289000000000000000000000000000000000000000000000000000000008152600401610f8d91906127c8565b60405180910390fd5b80915050919050565b600080610faa610eef565b905080600401600084815260200190815260200160002060009054906101000a900473ffffffffffffffffffffffffffffffffffffffff16915050919050565b600033905090565b610fff83838360016118a3565b505050565b61101581611010610fea565b611a77565b50565b611032828260405180602001604052806000815250611ac8565b5050565b60008061104284611858565b9050600073ffffffffffffffffffffffffffffffffffffffff168173ffffffffffffffffffffffffffffffffffffffff16141580156110ae5750600073ffffffffffffffffffffffffffffffffffffffff168573ffffffffffffffffffffffffffffffffffffffff1614155b156110ee576040517f08c379a00000000000000000000000000000000000000000000000000000000081526004016110e590612e34565b60405180910390fd5b6110f9858585611aec565b9150509392505050565b60007f02dd7bc7dec4dceedda775e58dd541e08a116c6c53815c0bd028192f7b626800905090565b600080611136611103565b9050611142848461090d565b61122057600181600001600086815260200190815260200160002060000160008573ffffffffffffffffffffffffffffffffffffffff1673ffffffffffffffffffffffffffffffffffffffff16815260200190815260200160002060006101000a81548160ff0219169083151502179055506111bc610fea565b73ffffffffffffffffffffffffffffffffffffffff168373ffffffffffffffffffffffffffffffffffffffff16857f2f8788117e7eff1d82e926ec794901d17c78024a50270940304540a733656f0d60405160405180910390a46001915050611226565b60009150505b92915050565b600080611237611103565b9050611243848461090d565b1561132257600081600001600086815260200190815260200160002060000160008573ffffffffffffffffffffffffffffffffffffffff1673ffffffffffffffffffffffffffffffffffffffff16815260200190815260200160002060006101000a81548160ff0219169083151502179055506112be610fea565b73ffffffffffffffffffffffffffffffffffffffff168373ffffffffffffffffffffffffffffffffffffffff16857ff6391f5c32d9c69d2a47ea670b442974b53935d1edc7fd64eb21e047a839171b60405160405180910390a46001915050611328565b60009150505b92915050565b6000611338610eef565b9050600073ffffffffffffffffffffffffffffffffffffffff168373ffffffffffffffffffffffffffffffffffffffff16036113ab57826040517f5b08ba180000000000000000000000000000000000000000000000000000000081526004016113a29190612441565b60405180910390fd5b818160050160008673ffffffffffffffffffffffffffffffffffffffff1673ffffffffffffffffffffffffffffffffffffffff16815260200190815260200160002060008573ffffffffffffffffffffffffffffffffffffffff1673ffffffffffffffffffffffffffffffffffffffff16815260200190815260200160002060006101000a81548160ff0219169083151502179055508273ffffffffffffffffffffffffffffffffffffffff168473ffffffffffffffffffffffffffffffffffffffff167f17307eab39ab6107e8899845ad3d59bd9653f200f220920489ca2b5937696c318460405161149e91906122d0565b60405180910390a350505050565b60008373ffffffffffffffffffffffffffffffffffffffff163b1115611656578273ffffffffffffffffffffffffffffffffffffffff1663150b7a02868685856040518563ffffffff1660e01b815260040161150b9493929190612ea9565b6020604051808303816000875af192505050801561154757506040513d601f19601f820116820180604052508101906115449190612f0a565b60015b6115cb573d8060008114611577576040519150601f19603f3d011682016040523d82523d6000602084013e61157c565b606091505b5060008151036115c357836040517f64a0ae920000000000000000000000000000000000000000000000000000000081526004016115ba9190612441565b60405180910390fd5b805160208201fd5b63150b7a0260e01b7bffffffffffffffffffffffffffffffffffffffffffffffffffffffff1916817bffffffffffffffffffffffffffffffffffffffffffffffffffffffff19161461165457836040517f64a0ae9200000000000000000000000000000000000000000000000000000000815260040161164b9190612441565b60405180910390fd5b505b5050505050565b600080611668611d19565b90508091505090565b611679611d44565b6116838282611d84565b5050565b61168f611d44565b565b606060405180602001604052806000815250905090565b6060600060016116b784611dc1565b01905060008167ffffffffffffffff8111156116d6576116d56124d2565b5b6040519080825280601f01601f1916602001820160405280156117085781602001600182028036833780820191505090505b509050600082602083010190505b60011561176b578080600190039150507f3031323334353637383961626364656600000000000000000000000000000000600a86061a8153600a858161175f5761175e612f37565b5b04945060008503611716575b819350505050919050565b60007f80ac58cd000000000000000000000000000000000000000000000000000000007bffffffffffffffffffffffffffffffffffffffffffffffffffffffff1916827bffffffffffffffffffffffffffffffffffffffffffffffffffffffff1916148061184157507f5b5e139f000000000000000000000000000000000000000000000000000000007bffffffffffffffffffffffffffffffffffffffffffffffffffffffff1916827bffffffffffffffffffffffffffffffffffffffffffffffffffffffff1916145b80611851575061185082611f14565b5b9050919050565b600080611863610eef565b905080600201600084815260200190815260200160002060009054906101000a900473ffffffffffffffffffffffffffffffffffffffff16915050919050565b60006118ad610eef565b905081806118e85750600073ffffffffffffffffffffffffffffffffffffffff168373ffffffffffffffffffffffffffffffffffffffff1614155b15611a1c5760006118f885610f17565b9050600073ffffffffffffffffffffffffffffffffffffffff168473ffffffffffffffffffffffffffffffffffffffff161415801561196357508373ffffffffffffffffffffffffffffffffffffffff168173ffffffffffffffffffffffffffffffffffffffff1614155b801561197657506119748185610dd3565b155b156119b857836040517fa9fbf51f0000000000000000000000000000000000000000000000000000000081526004016119af9190612441565b60405180910390fd5b8215611a1a57848673ffffffffffffffffffffffffffffffffffffffff168273ffffffffffffffffffffffffffffffffffffffff167f8c5be1e5ebec7d5bd14f71427d1e84f3dd0314c0f7b2291e5b200ac8c7c3b92560405160405180910390a45b505b8481600401600086815260200190815260200160002060006101000a81548173ffffffffffffffffffffffffffffffffffffffff021916908373ffffffffffffffffffffffffffffffffffffffff1602179055505050505050565b611a81828261090d565b611ac45780826040517fe2517d3f000000000000000000000000000000000000000000000000000000008152600401611abb929190612f66565b60405180910390fd5b5050565b611ad28383611f7e565b611ae7611add610fea565b60008585856114ac565b505050565b600080611af7610eef565b90506000611b0485611858565b9050600073ffffffffffffffffffffffffffffffffffffffff168473ffffffffffffffffffffffffffffffffffffffff1614611b4657611b45818587612077565b5b600073ffffffffffffffffffffffffffffffffffffffff168173ffffffffffffffffffffffffffffffffffffffff1614611bd957611b886000866000806118a3565b60018260030160008373ffffffffffffffffffffffffffffffffffffffff1673ffffffffffffffffffffffffffffffffffffffff168152602001908152602001600020600082825403925050819055505b600073ffffffffffffffffffffffffffffffffffffffff168673ffffffffffffffffffffffffffffffffffffffff1614611c5e5760018260030160008873ffffffffffffffffffffffffffffffffffffffff1673ffffffffffffffffffffffffffffffffffffffff168152602001908152602001600020600082825401925050819055505b8582600201600087815260200190815260200160002060006101000a81548173ffffffffffffffffffffffffffffffffffffffff021916908373ffffffffffffffffffffffffffffffffffffffff160217905550848673ffffffffffffffffffffffffffffffffffffffff168273ffffffffffffffffffffffffffffffffffffffff167fddf252ad1be2c89b69c2b068fc378daa952ba7f163c4a11628f55a4df523b3ef60405160405180910390a480925050509392505050565b60007ff0c57e16840df040f15088dc2f81fe391c3923bec73e23a9662efc9c229c6a0060001b905090565b611d4c61213b565b611d82576040517fd7e6bcf800000000000000000000000000000000000000000000000000000000815260040160405180910390fd5b565b611d8c611d44565b6000611d96610eef565b905082816000019081611da99190612bbf565b5081816001019081611dbb9190612bbf565b50505050565b600080600090507a184f03e93ff9f4daa797ed6e38ed64bf6a1f0100000000000000008310611e1f577a184f03e93ff9f4daa797ed6e38ed64bf6a1f0100000000000000008381611e1557611e14612f37565b5b0492506040810190505b6d04ee2d6d415b85acef81000000008310611e5c576d04ee2d6d415b85acef81000000008381611e5257611e51612f37565b5b0492506020810190505b662386f26fc100008310611e8b57662386f26fc100008381611e8157611e80612f37565b5b0492506010810190505b6305f5e1008310611eb4576305f5e1008381611eaa57611ea9612f37565b5b0492506008810190505b6127108310611ed9576127108381611ecf57611ece612f37565b5b0492506004810190505b60648310611efc5760648381611ef257611ef1612f37565b5b0492506002810190505b600a8310611f0b576001810190505b80915050919050565b60007f01ffc9a7000000000000000000000000000000000000000000000000000000007bffffffffffffffffffffffffffffffffffffffffffffffffffffffff1916827bffffffffffffffffffffffffffffffffffffffffffffffffffffffff1916149050919050565b600073ffffffffffffffffffffffffffffffffffffffff168273ffffffffffffffffffffffffffffffffffffffff1603611ff05760006040517f64a0ae92000000000000000000000000000000000000000000000000000000008152600401611fe79190612441565b60405180910390fd5b6000611ffe83836000611036565b9050600073ffffffffffffffffffffffffffffffffffffffff168173ffffffffffffffffffffffffffffffffffffffff16146120725760006040517f73c6ac6e0000000000000000000000000000000000000000000000000000000081526004016120699190612441565b60405180910390fd5b505050565b61208283838361215b565b61213657600073ffffffffffffffffffffffffffffffffffffffff168373ffffffffffffffffffffffffffffffffffffffff16036120f757806040517f7e2732890000000000000000000000000000000000000000000000000000000081526004016120ee91906127c8565b60405180910390fd5b81816040517f177e802f00000000000000000000000000000000000000000000000000000000815260040161212d929190612f8f565b60405180910390fd5b505050565b600061214561165d565b60000160089054906101000a900460ff16905090565b60008073ffffffffffffffffffffffffffffffffffffffff168373ffffffffffffffffffffffffffffffffffffffff161415801561221357508273ffffffffffffffffffffffffffffffffffffffff168473ffffffffffffffffffffffffffffffffffffffff1614806121d457506121d38484610dd3565b5b8061221257508273ffffffffffffffffffffffffffffffffffffffff166121fa83610f9f565b73ffffffffffffffffffffffffffffffffffffffff16145b5b90509392505050565b6000604051905090565b600080fd5b600080fd5b60007fffffffff0000000000000000000000000000000000000000000000000000000082169050919050565b61226581612230565b811461227057600080fd5b50565b6000813590506122828161225c565b92915050565b60006020828403121561229e5761229d612226565b5b60006122ac84828501612273565b91505092915050565b60008115159050919050565b6122ca816122b5565b82525050565b60006020820190506122e560008301846122c1565b92915050565b600081519050919050565b600082825260208201905092915050565b60005b8381101561232557808201518184015260208101905061230a565b60008484015250505050565b6000601f19601f8301169050919050565b600061234d826122eb565b61235781856122f6565b9350612367818560208601612307565b61237081612331565b840191505092915050565b600060208201905081810360008301526123958184612342565b905092915050565b6000819050919050565b6123b08161239d565b81146123bb57600080fd5b50565b6000813590506123cd816123a7565b92915050565b6000602082840312156123e9576123e8612226565b5b60006123f7848285016123be565b91505092915050565b600073ffffffffffffffffffffffffffffffffffffffff82169050919050565b600061242b82612400565b9050919050565b61243b81612420565b82525050565b60006020820190506124566000830184612432565b92915050565b61246581612420565b811461247057600080fd5b50565b6000813590506124828161245c565b92915050565b6000806040838503121561249f5761249e612226565b5b60006124ad85828601612473565b92505060206124be858286016123be565b9150509250929050565b600080fd5b600080fd5b7f4e487b7100000000000000000000000000000000000000000000000000000000600052604160045260246000fd5b61250a82612331565b810181811067ffffffffffffffff82111715612529576125286124d2565b5b80604052505050565b600061253c61221c565b90506125488282612501565b919050565b600067ffffffffffffffff821115612568576125676124d2565b5b61257182612331565b9050602081019050919050565b82818337600083830152505050565b60006125a061259b8461254d565b612532565b9050828152602081018484840111156125bc576125bb6124cd565b5b6125c784828561257e565b509392505050565b600082601f8301126125e4576125e36124c8565b5b81356125f484826020860161258d565b91505092915050565b60008060006060848603121561261657612615612226565b5b600061262486828701612473565b9350506020612635868287016123be565b925050604084013567ffffffffffffffff8111156126565761265561222b565b5b612662868287016125cf565b9150509250925092565b60008060006060848603121561268557612684612226565b5b600061269386828701612473565b93505060206126a486828701612473565b92505060406126b5868287016123be565b9150509250925092565b6000819050919050565b6126d2816126bf565b81146126dd57600080fd5b50565b6000813590506126ef816126c9565b92915050565b60006020828403121561270b5761270a612226565b5b6000612719848285016126e0565b91505092915050565b61272b816126bf565b82525050565b60006020820190506127466000830184612722565b92915050565b6000806040838503121561276357612762612226565b5b6000612771858286016126e0565b925050602061278285828601612473565b9150509250929050565b6000602082840312156127a2576127a1612226565b5b60006127b084828501612473565b91505092915050565b6127c28161239d565b82525050565b60006020820190506127dd60008301846127b9565b92915050565b6127ec816122b5565b81146127f757600080fd5b50565b600081359050612809816127e3565b92915050565b6000806040838503121561282657612825612226565b5b600061283485828601612473565b9250506020612845858286016127fa565b9150509250929050565b600067ffffffffffffffff82111561286a576128696124d2565b5b61287382612331565b9050602081019050919050565b600061289361288e8461284f565b612532565b9050828152602081018484840111156128af576128ae6124cd565b5b6128ba84828561257e565b509392505050565b600082601f8301126128d7576128d66124c8565b5b81356128e7848260208601612880565b91505092915050565b6000806000806080858703121561290a57612909612226565b5b600061291887828801612473565b945050602061292987828801612473565b935050604061293a878288016123be565b925050606085013567ffffffffffffffff81111561295b5761295a61222b565b5b612967878288016128c2565b91505092959194509250565b6000806040838503121561298a57612989612226565b5b600061299885828601612473565b92505060206129a985828601612473565b9150509250929050565b7f4e487b7100000000000000000000000000000000000000000000000000000000600052602260045260246000fd5b600060028204905060018216806129fa57607f821691505b602082108103612a0d57612a0c6129b3565b5b50919050565b60008190508160005260206000209050919050565b60006020601f8301049050919050565b600082821b905092915050565b600060088302612a757fffffffffffffffffffffffffffffffffffffffffffffffffffffffffffffffff82612a38565b612a7f8683612a38565b95508019841693508086168417925050509392505050565b6000819050919050565b6000612abc612ab7612ab28461239d565b612a97565b61239d565b9050919050565b6000819050919050565b612ad683612aa1565b612aea612ae282612ac3565b848454612a45565b825550505050565b600090565b612aff612af2565b612b0a818484612acd565b505050565b5b81811015612b2e57612b23600082612af7565b600181019050612b10565b5050565b601f821115612b7357612b4481612a13565b612b4d84612a28565b81016020851015612b5c578190505b612b70612b6885612a28565b830182612b0f565b50505b505050565b600082821c905092915050565b6000612b9660001984600802612b78565b1980831691505092915050565b6000612baf8383612b85565b9150826002028217905092915050565b612bc8826122eb565b67ffffffffffffffff811115612be157612be06124d2565b5b612beb82546129e2565b612bf6828285612b32565b600060209050601f831160018114612c295760008415612c17578287015190505b612c218582612ba3565b865550612c89565b601f198416612c3786612a13565b60005b82811015612c5f57848901518255600182019150602085019450602081019050612c3a565b86831015612c7c5784890151612c78601f891682612b85565b8355505b6001600288020188555050505b505050505050565b6000604082019050612ca660008301856127b9565b8181036020830152612cb88184612342565b90509392505050565b6000606082019050612cd66000830186612432565b612ce360208301856127b9565b612cf06040830184612432565b949350505050565b6000819050919050565b600067ffffffffffffffff82169050919050565b6000612d31612d2c612d2784612cf8565b612a97565b612d02565b9050919050565b612d4181612d16565b82525050565b6000602082019050612d5c6000830184612d38565b92915050565b600081905092915050565b6000612d78826122eb565b612d828185612d62565b9350612d92818560208601612307565b80840191505092915050565b6000612daa8285612d6d565b9150612db68284612d6d565b91508190509392505050565b7f4344493a20536f756c626f756e6420746f6b656e732063616e6e6f742062652060008201527f7472616e73666572726564000000000000000000000000000000000000000000602082015250565b6000612e1e602b836122f6565b9150612e2982612dc2565b604082019050919050565b60006020820190508181036000830152612e4d81612e11565b9050919050565b600081519050919050565b600082825260208201905092915050565b6000612e7b82612e54565b612e858185612e5f565b9350612e95818560208601612307565b612e9e81612331565b840191505092915050565b6000608082019050612ebe6000830187612432565b612ecb6020830186612432565b612ed860408301856127b9565b8181036060830152612eea8184612e70565b905095945050505050565b600081519050612f048161225c565b92915050565b600060208284031215612f2057612f1f612226565b5b6000612f2e84828501612ef5565b91505092915050565b7f4e487b7100000000000000000000000000000000000000000000000000000000600052601260045260246000fd5b6000604082019050612f7b6000830185612432565b612f886020830184612722565b9392505050565b6000604082019050612fa46000830185612432565b612fb160208301846127b9565b939250505056fea264697066735822122060fa1af91590fbc641a57205561fb083cd7a111159ba858c5a9e03c6fee43db964736f6c63430008140033",
  "linkReferences": {},
  "deployedLinkReferences": {}
}