{
  "_format": "hh-sol-artifact-1",
  "contractName": "ScrollHashRegistry",
  "sourceName": "contracts/ScrollHashRegistry.sol",
  "abi": [
    {
      "inputs": [],
      "stateMutability": "nonpayable",
      "type": "constructor"
    },
    {
      "anonymous": false,
      "inputs": [
        {
          "indexed": true,
          "internalType": "bytes32",
          "name": "hash",
          "type": "bytes32"
        },
        {
          "indexed": true,
          "internalType": "address",
          "name": "verifier",
          "type": "address"
        }
      ],
      "name": "ScrollVerified",
      "type": "event"
    },
    {
      "inputs": [
        {
          "internalType": "bytes32",
          "name": "hash",
          "type": "bytes32"
        }
      ],
      "name": "isVerified",
      "outputs": [
        {
          "internalType": "bool",
          "name": "",
          "type": "bool"
        }
      ],
      "stateMutability": "view",
      "type": "function"
    },
    {
      "inputs": [],
      "name": "sovereign",
      "outputs": [
        {
          "internalType": "address",
          "name": "",
          "type": "address"
        }
      ],
      "stateMutability": "view",
      "type": "function"
    },
    {
      "inputs": [
        {
          "internalType": "bytes32",
          "name": "",
          "type": "bytes32"
        }
      ],
      "name": "verifiedHashes",
      "outputs": [
        {
          "internalType": "bool",
          "name": "",
          "type": "bool"
        }
      ],
      "stateMutability": "view",
      "type": "function"
    },
    {
      "inputs": [
        {
          "internalType": "bytes32",
          "name": "hash",
          "type": "bytes32"
        }
      ],
      "name": "verifyScroll",
      "outputs": [],
      "stateMutability": "nonpayable",
      "type": "function"
    }
  ],
  "bytecode": "0x608060405234801561001057600080fd5b50336000806101000a81548173ffffffffffffffffffffffffffffffffffffffff021916908373ffffffffffffffffffffffffffffffffffffffff1602179055506102fb806100606000396000f3fe608060405234801561001057600080fd5b506004361061004c5760003560e01c80632c25bb0d14610051578063374146e21461006f578063c181b2731461009f578063d06ef224146100cf575b600080fd5b6100596100eb565b604051610066919061020c565b60405180910390f35b61008960048036038101906100849190610262565b61010f565b60405161009691906102aa565b60405180910390f35b6100b960048036038101906100b49190610262565b61012f565b6040516100c691906102aa565b60405180910390f35b6100e960048036038101906100e49190610262565b610159565b005b60008054906101000a900473ffffffffffffffffffffffffffffffffffffffff1681565b60016020528060005260406000206000915054906101000a900460ff1681565b60006001600083815260200190815260200160002060009054906101000a900460ff169050919050565b600180600083815260200190815260200160002060006101000a81548160ff0219169083151502179055503373ffffffffffffffffffffffffffffffffffffffff16817fba97d078eeab7d043fee195c293fb86ce69e3dd12b8e48f8a5eedda34e831c2f60405160405180910390a350565b600073ffffffffffffffffffffffffffffffffffffffff82169050919050565b60006101f6826101cb565b9050919050565b610206816101eb565b82525050565b600060208201905061022160008301846101fd565b92915050565b600080fd5b6000819050919050565b61023f8161022c565b811461024a57600080fd5b50565b60008135905061025c81610236565b92915050565b60006020828403121561027857610277610227565b5b60006102868482850161024d565b91505092915050565b60008115159050919050565b6102a48161028f565b82525050565b60006020820190506102bf600083018461029b565b9291505056fea26469706673582212205041332afefc549809dc9cef2943aa16c8fd5c410dd727af49cd7c85beffcbb064736f6c63430008140033",
  "linkReferences": {},
  "deployedLinkReferences": {}
}